{"abi":[{"type":"function","name":"initiator","inputs":[],"outputs":[{"name":"","type":"address","internalType":"address"}],"stateMutability":"view"},{"type":"function","name":"multicall","inputs":[{"name":"bundle","type":"tuple[]","internalType":"struct Call[]","components":[{"name":"to","type":"address","internalType":"address"},{"name":"data","type":"bytes","internalType":"bytes"},{"name":"value","type":"uint256","internalType":"uint256"},{"name":"skipRevert","type":"bool","internalType":"bool"},{"name":"callbackHash","type":"bytes32","internalType":"bytes32"}]}],"outputs":[],"stateMutability":"payable"},{"type":"function","name":"reenter","inputs":[{"name":"bundle","type":"tuple[]","internalType":"struct Call[]","components":[{"name":"to","type":"address","internalType":"address"},{"name":"data","type":"bytes","internalType":"bytes"},{"name":"value","type":"uint256","internalType":"uint256"},{"name":"skipRevert","type":"bool","internalType":"bool"},{"name":"callbackHash","type":"bytes32","internalType":"bytes32"}]}],"outputs":[],"stateMutability":"nonpayable"},{"type":"function","name":"reenterHash","inputs":[],"outputs":[{"name":"","type":"bytes32","internalType":"bytes32"}],"stateMutability":"view"},{"type":"error","name":"AlreadyInitiated","inputs":[]},{"type":"error","name":"EmptyBundle","inputs":[]},{"type":"error","name":"IncorrectReenterHash","inputs":[]},{"type":"error","name":"MissingExpectedReenter","inputs":[]}],"bytecode":{"object":"0x6080806040523460155761041f908161001a8239f35b5f80fdfe60806040526004361015610011575f80fd5b5f5f3560e01c8063374f435d1461011b5780635c39fcc1146100f6578063803a7fba146100665763e69fe13414610046575f80fd5b34610063578060031936011261006357602060015c604051908152f35b80fd5b346100f2576100743661016d565b60015c366004116100f2576100cc3660031901610090816101f7565b61009d60405191826101c1565b8181526020810191600483375f368201601c01525190203360601b6bffffffffffffffffffffffff1916610213565b60208151910120036100e3576100e191610279565b005b630d306c2b60e11b5f5260045ffd5b5f80fd5b346100f2575f3660031901126100f2576040515f5c6001600160a01b03168152602090f35b6101243661016d565b5f5c6001600160a01b031661015e5761014d915f805c6001600160a01b0319163317905d610279565b5f805c6001600160a01b031916905d005b631b6c056760e11b5f5260045ffd5b9060206003198301126100f25760043567ffffffffffffffff81116100f257826023820112156100f25780600401359267ffffffffffffffff84116100f25760248460051b830101116100f2576024019190565b90601f8019910116810190811067ffffffffffffffff8211176101e357604052565b634e487b7160e01b5f52604160045260245ffd5b67ffffffffffffffff81116101e357601f01601f191660200190565b9190604051926bffffffffffffffffffffffff191660208401526034830152603482526102416054836101c1565b565b91908110156102655760051b81013590609e19813603018212156100f2570190565b634e487b7160e01b5f52603260045260245ffd5b81156103da575f5b82811061028d57505050565b610298818484610243565b356001600160a01b03811681036100f25760806102b6838686610243565b0135806103af57505f60015d5b60406102d0838686610243565b0135906102de838686610243565b602081013590601e19813603018212156100f257019081359167ffffffffffffffff83116100f2576020019180360383136100f2575f938493826040519384928337810185815203925af13d156103a7573d9061033a826101f7565b9161034860405193846101c1565b82523d5f602084013e5b606061035f848787610243565b0135908115918215036100f2578161039e575b50610396575060015c61038757600101610281565b637177528b60e11b5f5260045ffd5b805190602001fd5b9050155f610372565b606090610352565b6103cb906bffffffffffffffffffffffff198360601b16610213565b6020815191012060015d6102c3565b631563113f60e21b5f5260045ffdfea2646970667358221220b5f8f30347111753890504e6d07e41e1c2c8664348aa50a4c0fd65e1cd83705264736f6c634300081c0033","linkReferences":{}},"methodIdentifiers":{"initiator()":"5c39fcc1","multicall((address,bytes,uint256,bool,bytes32)[])":"374f435d","reenter((address,bytes,uint256,bool,bytes32)[])":"803a7fba","reenterHash()":"e69fe134"},"id":8}