{"abi":[{"type":"constructor","inputs":[{"name":"newOwner","type":"address","internalType":"address"}],"stateMutability":"nonpayable"},{"type":"function","name":"DOMAIN_SEPARATOR","inputs":[],"outputs":[{"name":"","type":"bytes32","internalType":"bytes32"}],"stateMutability":"view"},{"type":"function","name":"accrueInterest","inputs":[{"name":"marketParams","type":"tuple","internalType":"struct MarketParams","components":[{"name":"loanToken","type":"address","internalType":"address"},{"name":"collateralToken","type":"address","internalType":"address"},{"name":"oracle","type":"address","internalType":"address"},{"name":"irm","type":"address","internalType":"address"},{"name":"lltv","type":"uint256","internalType":"uint256"}]}],"outputs":[],"stateMutability":"nonpayable"},{"type":"function","name":"borrow","inputs":[{"name":"marketParams","type":"tuple","internalType":"struct MarketParams","components":[{"name":"loanToken","type":"address","internalType":"address"},{"name":"collateralToken","type":"address","internalType":"address"},{"name":"oracle","type":"address","internalType":"address"},{"name":"irm","type":"address","internalType":"address"},{"name":"lltv","type":"uint256","internalType":"uint256"}]},{"name":"assets","type":"uint256","internalType":"uint256"},{"name":"shares","type":"uint256","internalType":"uint256"},{"name":"onBehalf","type":"address","internalType":"address"},{"name":"receiver","type":"address","internalType":"address"}],"outputs":[{"name":"","type":"uint256","internalType":"uint256"},{"name":"","type":"uint256","internalType":"uint256"}],"stateMutability":"nonpayable"},{"type":"function","name":"createMarket","inputs":[{"name":"marketParams","type":"tuple","internalType":"struct MarketParams","components":[{"name":"loanToken","type":"address","internalType":"address"},{"name":"collateralToken","type":"address","internalType":"address"},{"name":"oracle","type":"address","internalType":"address"},{"name":"irm","type":"address","internalType":"address"},{"name":"lltv","type":"uint256","internalType":"uint256"}]}],"outputs":[],"stateMutability":"nonpayable"},{"type":"function","name":"enableIrm","inputs":[{"name":"irm","type":"address","internalType":"address"}],"outputs":[],"stateMutability":"nonpayable"},{"type":"function","name":"enableLltv","inputs":[{"name":"lltv","type":"uint256","internalType":"uint256"}],"outputs":[],"stateMutability":"nonpayable"},{"type":"function","name":"extSloads","inputs":[{"name":"slots","type":"bytes32[]","internalType":"bytes32[]"}],"outputs":[{"name":"res","type":"bytes32[]","internalType":"bytes32[]"}],"stateMutability":"view"},{"type":"function","name":"feeRecipient","inputs":[],"outputs":[{"name":"","type":"address","internalType":"address"}],"stateMutability":"view"},{"type":"function","name":"flashLoan","inputs":[{"name":"token","type":"address","internalType":"address"},{"name":"assets","type":"uint256","internalType":"uint256"},{"name":"data","type":"bytes","internalType":"bytes"}],"outputs":[],"stateMutability":"nonpayable"},{"type":"function","name":"idToMarketParams","inputs":[{"name":"","type":"bytes32","internalType":"Id"}],"outputs":[{"name":"loanToken","type":"address","internalType":"address"},{"name":"collateralToken","type":"address","internalType":"address"},{"name":"oracle","type":"address","internalType":"address"},{"name":"irm","type":"address","internalType":"address"},{"name":"lltv","type":"uint256","internalType":"uint256"}],"stateMutability":"view"},{"type":"function","name":"isAuthorized","inputs":[{"name":"","type":"address","internalType":"address"},{"name":"","type":"address","internalType":"address"}],"outputs":[{"name":"","type":"bool","internalType":"bool"}],"stateMutability":"view"},{"type":"function","name":"isIrmEnabled","inputs":[{"name":"","type":"address","internalType":"address"}],"outputs":[{"name":"","type":"bool","internalType":"bool"}],"stateMutability":"view"},{"type":"function","name":"isLltvEnabled","inputs":[{"name":"","type":"uint256","internalType":"uint256"}],"outputs":[{"name":"","type":"bool","internalType":"bool"}],"stateMutability":"view"},{"type":"function","name":"liquidate","inputs":[{"name":"marketParams","type":"tuple","internalType":"struct MarketParams","components":[{"name":"loanToken","type":"address","internalType":"address"},{"name":"collateralToken","type":"address","internalType":"address"},{"name":"oracle","type":"address","internalType":"address"},{"name":"irm","type":"address","internalType":"address"},{"name":"lltv","type":"uint256","internalType":"uint256"}]},{"name":"borrower","type":"address","internalType":"address"},{"name":"seizedAssets","type":"uint256","internalType":"uint256"},{"name":"repaidShares","type":"uint256","internalType":"uint256"},{"name":"data","type":"bytes","internalType":"bytes"}],"outputs":[{"name":"","type":"uint256","internalType":"uint256"},{"name":"","type":"uint256","internalType":"uint256"}],"stateMutability":"nonpayable"},{"type":"function","name":"market","inputs":[{"name":"","type":"bytes32","internalType":"Id"}],"outputs":[{"name":"totalSupplyAssets","type":"uint128","internalType":"uint128"},{"name":"totalSupplyShares","type":"uint128","internalType":"uint128"},{"name":"totalBorrowAssets","type":"uint128","internalType":"uint128"},{"name":"totalBorrowShares","type":"uint128","internalType":"uint128"},{"name":"lastUpdate","type":"uint128","internalType":"uint128"},{"name":"fee","type":"uint128","internalType":"uint128"}],"stateMutability":"view"},{"type":"function","name":"nonce","inputs":[{"name":"","type":"address","internalType":"address"}],"outputs":[{"name":"","type":"uint256","internalType":"uint256"}],"stateMutability":"view"},{"type":"function","name":"owner","inputs":[],"outputs":[{"name":"","type":"address","internalType":"address"}],"stateMutability":"view"},{"type":"function","name":"position","inputs":[{"name":"","type":"bytes32","internalType":"Id"},{"name":"","type":"address","internalType":"address"}],"outputs":[{"name":"supplyShares","type":"uint256","internalType":"uint256"},{"name":"borrowShares","type":"uint128","internalType":"uint128"},{"name":"collateral","type":"uint128","internalType":"uint128"}],"stateMutability":"view"},{"type":"function","name":"repay","inputs":[{"name":"marketParams","type":"tuple","internalType":"struct MarketParams","components":[{"name":"loanToken","type":"address","internalType":"address"},{"name":"collateralToken","type":"address","internalType":"address"},{"name":"oracle","type":"address","internalType":"address"},{"name":"irm","type":"address","internalType":"address"},{"name":"lltv","type":"uint256","internalType":"uint256"}]},{"name":"assets","type":"uint256","internalType":"uint256"},{"name":"shares","type":"uint256","internalType":"uint256"},{"name":"onBehalf","type":"address","internalType":"address"},{"name":"data","type":"bytes","internalType":"bytes"}],"outputs":[{"name":"","type":"uint256","internalType":"uint256"},{"name":"","type":"uint256","internalType":"uint256"}],"stateMutability":"nonpayable"},{"type":"function","name":"setAuthorization","inputs":[{"name":"authorized","type":"address","internalType":"address"},{"name":"newIsAuthorized","type":"bool","internalType":"bool"}],"outputs":[],"stateMutability":"nonpayable"},{"type":"function","name":"setAuthorizationWithSig","inputs":[{"name":"authorization","type":"tuple","internalType":"struct Authorization","components":[{"name":"authorizer","type":"address","internalType":"address"},{"name":"authorized","type":"address","internalType":"address"},{"name":"isAuthorized","type":"bool","internalType":"bool"},{"name":"nonce","type":"uint256","internalType":"uint256"},{"name":"deadline","type":"uint256","internalType":"uint256"}]},{"name":"signature","type":"tuple","internalType":"struct Signature","components":[{"name":"v","type":"uint8","internalType":"uint8"},{"name":"r","type":"bytes32","internalType":"bytes32"},{"name":"s","type":"bytes32","internalType":"bytes32"}]}],"outputs":[],"stateMutability":"nonpayable"},{"type":"function","name":"setFee","inputs":[{"name":"marketParams","type":"tuple","internalType":"struct MarketParams","components":[{"name":"loanToken","type":"address","internalType":"address"},{"name":"collateralToken","type":"address","internalType":"address"},{"name":"oracle","type":"address","internalType":"address"},{"name":"irm","type":"address","internalType":"address"},{"name":"lltv","type":"uint256","internalType":"uint256"}]},{"name":"newFee","type":"uint256","internalType":"uint256"}],"outputs":[],"stateMutability":"nonpayable"},{"type":"function","name":"setFeeRecipient","inputs":[{"name":"newFeeRecipient","type":"address","internalType":"address"}],"outputs":[],"stateMutability":"nonpayable"},{"type":"function","name":"setOwner","inputs":[{"name":"newOwner","type":"address","internalType":"address"}],"outputs":[],"stateMutability":"nonpayable"},{"type":"function","name":"supply","inputs":[{"name":"marketParams","type":"tuple","internalType":"struct MarketParams","components":[{"name":"loanToken","type":"address","internalType":"address"},{"name":"collateralToken","type":"address","internalType":"address"},{"name":"oracle","type":"address","internalType":"address"},{"name":"irm","type":"address","internalType":"address"},{"name":"lltv","type":"uint256","internalType":"uint256"}]},{"name":"assets","type":"uint256","internalType":"uint256"},{"name":"shares","type":"uint256","internalType":"uint256"},{"name":"onBehalf","type":"address","internalType":"address"},{"name":"data","type":"bytes","internalType":"bytes"}],"outputs":[{"name":"","type":"uint256","internalType":"uint256"},{"name":"","type":"uint256","internalType":"uint256"}],"stateMutability":"nonpayable"},{"type":"function","name":"supplyCollateral","inputs":[{"name":"marketParams","type":"tuple","internalType":"struct MarketParams","components":[{"name":"loanToken","type":"address","internalType":"address"},{"name":"collateralToken","type":"address","internalType":"address"},{"name":"oracle","type":"address","internalType":"address"},{"name":"irm","type":"address","internalType":"address"},{"name":"lltv","type":"uint256","internalType":"uint256"}]},{"name":"assets","type":"uint256","internalType":"uint256"},{"name":"onBehalf","type":"address","internalType":"address"},{"name":"data","type":"bytes","internalType":"bytes"}],"outputs":[],"stateMutability":"nonpayable"},{"type":"function","name":"withdraw","inputs":[{"name":"marketParams","type":"tuple","internalType":"struct MarketParams","components":[{"name":"loanToken","type":"address","internalType":"address"},{"name":"collateralToken","type":"address","internalType":"address"},{"name":"oracle","type":"address","internalType":"address"},{"name":"irm","type":"address","internalType":"address"},{"name":"lltv","type":"uint256","internalType":"uint256"}]},{"name":"assets","type":"uint256","internalType":"uint256"},{"name":"shares","type":"uint256","internalType":"uint256"},{"name":"onBehalf","type":"address","internalType":"address"},{"name":"receiver","type":"address","internalType":"address"}],"outputs":[{"name":"","type":"uint256","internalType":"uint256"},{"name":"","type":"uint256","internalType":"uint256"}],"stateMutability":"nonpayable"},{"type":"function","name":"withdrawCollateral","inputs":[{"name":"marketParams","type":"tuple","internalType":"struct MarketParams","components":[{"name":"loanToken","type":"address","internalType":"address"},{"name":"collateralToken","type":"address","internalType":"address"},{"name":"oracle","type":"address","internalType":"address"},{"name":"irm","type":"address","internalType":"address"},{"name":"lltv","type":"uint256","internalType":"uint256"}]},{"name":"assets","type":"uint256","internalType":"uint256"},{"name":"onBehalf","type":"address","internalType":"address"},{"name":"receiver","type":"address","internalType":"address"}],"outputs":[],"stateMutability":"nonpayable"}],"bytecode":{"object":"0x60a06040523480156200001157600080fd5b50604051620043473803806200434783398101604081905262000034916200012b565b60408051808201909152600c81526b7a65726f206164647265737360a01b60208201526001600160a01b0382166200008a5760405162461bcd60e51b81526004016200008191906200015d565b60405180910390fd5b50604080517f47e79534a245952e8b16893a336b85a3d9ea9fa8c573f3d803afb92a794692186020820152469181019190915230606082015260800160408051808303601f19018152908290528051602090910120608052600080546001600160a01b0319166001600160a01b0384169081178255917f167d3e9c1016ab80e58802ca9da10ce5c6a0f4debc46a2e7a2cd9e56899a4fb59190a250620001ad565b6000602082840312156200013e57600080fd5b81516001600160a01b03811681146200015657600080fd5b9392505050565b600060208083528351808285015260005b818110156200018c578581018301518582016040015282016200016e565b506000604082860101526040601f19601f8301168501019250505092915050565b608051614177620001d0600039600081816102720152611a3701526141776000f3fe608060405234801561001057600080fd5b50600436106101645760003560e01c806370ae92d2116100c957806370ae92d2146103f15780637784c685146104115780638069218f146104315780638720316d146104445780638c1358a2146104575780638da5cb5b1461046a57806393c520621461047d578063a99aad89146104e8578063b485f3b8146104fb578063d8eabcb81461051e578063e0232b4214610531578063e74b981b14610544578063eecea00014610557578063f2b863ce1461056a57600080fd5b806313af403514610169578063151c1ade1461017e57806320b76e8114610191578063238d6579146101be5780632b4f013c146101d15780632c3c9157146101e45780633644e5151461026d57806346904840146102a25780634d98a93b146102cd57806350d8cd4b146102e05780635a64f51e146102f35780635c2bea49146103065780635c60e39a1461031957806365e4ad9e146103b3575b600080fd5b61017c6101773660046138d1565b61058d565b005b61017c61018c3660046139a2565b61067d565b6101a461019f366004613a06565b6106ee565b604080519283526020830191909152015b60405180910390f35b61017c6101cc366004613a80565b610a5c565b61017c6101df366004613af0565b610c8d565b6102326101f2366004613b1b565b600860205260009081526040902080546001820154600283015460038401546004909401546001600160a01b039384169492841693918216929091169085565b604080516001600160a01b0396871681529486166020860152928516928401929092529092166060820152608081019190915260a0016101b5565b6102947f000000000000000000000000000000000000000000000000000000000000000081565b6040519081526020016101b5565b6001546102b5906001600160a01b031681565b6040516001600160a01b0390911681526020016101b5565b61017c6102db366004613b1b565b610e6a565b6101a46102ee366004613b34565b610fb5565b61017c6103013660046138d1565b6113ea565b6101a4610314366004613b34565b6114e4565b610371610327366004613b1b565b6003602052600090815260409020805460018201546002909201546001600160801b0380831693600160801b93849004821693818316939181900483169282811692919091041686565b604080516001600160801b03978816815295871660208701529386169385019390935290841660608401528316608083015290911660a082015260c0016101b5565b6103e16103c1366004613b8e565b600660209081526000928352604080842090915290825290205460ff1681565b60405190151581526020016101b5565b6102946103ff3660046138d1565b60076020526000908152604090205481565b61042461041f366004613bc1565b61184c565b6040516101b59190613c35565b61017c61043f366004613c8a565b6118dd565b61017c610452366004613d19565b611c4b565b61017c6104653660046139a2565b611ecb565b6000546102b5906001600160a01b031681565b6104c361048b366004613d68565b6002602090815260009283526040808420909152908252902080546001909101546001600160801b0380821691600160801b90041683565b604080519384526001600160801b0392831660208501529116908201526060016101b5565b6101a46104f6366004613a06565b61217b565b6103e1610509366004613b1b565b60056020526000908152604090205460ff1681565b6101a461052c366004613d8b565b612466565b61017c61053f366004613de7565b612bb1565b61017c6105523660046138d1565b612cbb565b61017c610565366004613e40565b612da4565b6103e16105783660046138d1565b60046020526000908152604090205460ff1681565b6000546040805180820190915260098152683737ba1037bbb732b960b91b6020820152906001600160a01b031633146105e25760405162461bcd60e51b81526004016105d99190613e9b565b60405180910390fd5b5060005460408051808201909152600b81526a185b1c9958591e481cd95d60aa1b6020820152906001600160a01b038381169116036106345760405162461bcd60e51b81526004016105d99190613e9b565b50600080546001600160a01b0319166001600160a01b038316908117825560405190917f167d3e9c1016ab80e58802ca9da10ce5c6a0f4debc46a2e7a2cd9e56899a4fb591a250565b60a081206000818152600360209081526040918290206002015482518084019093526012835260008051602061414b833981519152918301919091526001600160801b03166106df5760405162461bcd60e51b81526004016105d99190613e9b565b506106ea8282612e82565b5050565b60008060006106fe8960a0902090565b6000818152600360209081526040918290206002015482518084019093526012835260008051602061414b83398151915291830191909152919250906001600160801b03166107605760405162461bcd60e51b81526004016105d99190613e9b565b506040805180820190915260128152711a5b98dbdb9cda5cdd195b9d081a5b9c1d5d60721b602082015288158815186107ac5760405162461bcd60e51b81526004016105d99190613e9b565b5060408051808201909152600c81526b7a65726f206164647265737360a01b60208201526001600160a01b0387166107f75760405162461bcd60e51b81526004016105d99190613e9b565b506108028982612e82565b8715610840576000818152600360205260409020600101546108399089906001600160801b0380821691600160801b9004166131d9565b9650610874565b6000818152600360205260409020600101546108719088906001600160801b0380821691600160801b900416613208565b97505b61087d8761322d565b60008281526002602090815260408083206001600160a01b038b168452909152812060010180549091906108bb9084906001600160801b0316613ee4565b92506101000a8154816001600160801b0302191690836001600160801b031602179055506108e88761322d565b60008281526003602052604090206001018054601090610919908490600160801b90046001600160801b0316613ee4565b82546101009290920a6001600160801b0381810219909316918316021790915560008381526003602052604090206001015461095d925016898103908a100261322d565b60008281526003602090815260409182902060010180546001600160801b0319166001600160801b03949094169390931790925580518a81529182018990526001600160a01b03881691339184917f52acb05cebbd3cd39715469f22afbf5a17496295ef3bc9bb5944056c63ccaa09910160405180910390a48315610a365760405163016d164760e21b815233906305b4591c90610a03908b9089908990600401613f0b565b600060405180830381600087803b158015610a1d57600080fd5b505af1158015610a31573d6000803e3d6000fd5b505050505b8851610a4d906001600160a01b031633308b61328a565b50959794965093945050505050565b60a085206000818152600360209081526040918290206002015482518084019093526012835260008051602061414b833981519152918301919091526001600160801b0316610abe5760405162461bcd60e51b81526004016105d99190613e9b565b5060408051808201909152600b81526a7a65726f2061737365747360a81b602082015285610aff5760405162461bcd60e51b81526004016105d99190613e9b565b5060408051808201909152600c81526b7a65726f206164647265737360a01b60208201526001600160a01b038516610b4a5760405162461bcd60e51b81526004016105d99190613e9b565b50610b548561322d565b60008281526002602090815260408083206001600160a01b038916845290915290206001018054601090610b99908490600160801b90046001600160801b0316613f41565b92506101000a8154816001600160801b0302191690836001600160801b03160217905550836001600160a01b0316336001600160a01b0316827fa3b9472a1399e17e123f3c2e6586c23e504184d504de59cdaa2b375e880c618488604051610c0391815260200190565b60405180910390a48115610c6b5760405163b1022fdf60e01b8152339063b1022fdf90610c3890889087908790600401613f0b565b600060405180830381600087803b158015610c5257600080fd5b505af1158015610c66573d6000803e3d6000fd5b505050505b6020860151610c85906001600160a01b031633308861328a565b505050505050565b6000546040805180820190915260098152683737ba1037bbb732b960b91b6020820152906001600160a01b03163314610cd95760405162461bcd60e51b81526004016105d99190613e9b565b5060a082206000818152600360209081526040918290206002015482518084019093526012835260008051602061414b833981519152918301919091526001600160801b0316610d3c5760405162461bcd60e51b81526004016105d99190613e9b565b50600081815260036020908152604091829020600201548251808401909352600b83526a185b1c9958591e481cd95d60aa1b91830191909152600160801b90046001600160801b03168303610da45760405162461bcd60e51b81526004016105d99190613e9b565b5060408051808201909152601081526f1b585e0819995948195e18d95959195960821b60208201526703782dace9d90000831115610df55760405162461bcd60e51b81526004016105d99190613e9b565b50610e008382612e82565b6000818152600360205260409081902060020180546001600160801b03808616600160801b0291161790555181907f139d6f58e9a127229667c8e3b36e88890a66cfc8ab1024ddc513e189e125b75b90610e5d9085815260200190565b60405180910390a2505050565b6000546040805180820190915260098152683737ba1037bbb732b960b91b6020820152906001600160a01b03163314610eb65760405162461bcd60e51b81526004016105d99190613e9b565b50600081815260056020908152604091829020548251808401909352600b83526a185b1c9958591e481cd95d60aa1b9183019190915260ff1615610f0d5760405162461bcd60e51b81526004016105d99190613e9b565b506040805180820190915260118152701b585e081313151588195e18d959591959607a1b6020820152670de0b6b3a76400008210610f5e5760405162461bcd60e51b81526004016105d99190613e9b565b5060008181526005602052604090819020805460ff19166001179055517f297b80e7a896fad470c630f6575072d609bde997260ff3db851939405ec2913990610faa9083815260200190565b60405180910390a150565b6000806000610fc58860a0902090565b6000818152600360209081526040918290206002015482518084019093526012835260008051602061414b83398151915291830191909152919250906001600160801b03166110275760405162461bcd60e51b81526004016105d99190613e9b565b506040805180820190915260128152711a5b98dbdb9cda5cdd195b9d081a5b9c1d5d60721b602082015287158715186110735760405162461bcd60e51b81526004016105d99190613e9b565b5060408051808201909152600c81526b7a65726f206164647265737360a01b60208201526001600160a01b0385166110be5760405162461bcd60e51b81526004016105d99190613e9b565b506110c885613440565b6040518060400160405280600c81526020016b1d5b985d5d1a1bdc9a5e995960a21b8152509061110b5760405162461bcd60e51b81526004016105d99190613e9b565b506111168882612e82565b86156111545760008181526003602052604090206001015461114d9088906001600160801b0380821691600160801b900416613482565b9550611188565b6000818152600360205260409020600101546111859087906001600160801b0380821691600160801b90041661349f565b96505b6111918661322d565b60008281526002602090815260408083206001600160a01b038a168452909152812060010180549091906111cf9084906001600160801b0316613f41565b92506101000a8154816001600160801b0302191690836001600160801b031602179055506111fc8661322d565b6000828152600360205260409020600101805460109061122d908490600160801b90046001600160801b0316613f41565b92506101000a8154816001600160801b0302191690836001600160801b0316021790555061125a8761322d565b600082815260036020526040812060010180549091906112849084906001600160801b0316613f41565b92506101000a8154816001600160801b0302191690836001600160801b031602179055506112b38882876134bc565b604051806040016040528060178152602001761a5b9cdd59999a58da595b9d0818dbdb1b185d195c985b604a1b815250906113015760405162461bcd60e51b81526004016105d99190613e9b565b50600081815260036020908152604091829020805460019091015483518085019094526016845275696e73756666696369656e74206c697175696469747960501b928401929092526001600160801b03908116911611156113755760405162461bcd60e51b81526004016105d99190613e9b565b50836001600160a01b0316856001600160a01b0316827f570954540bed6b1304a87dfe815a5eda4a648f7097a16240dcd85c9b5fd42a43338b8b6040516113be93929190613f61565b60405180910390a487516113dc906001600160a01b03168589613578565b509496939550929350505050565b6000546040805180820190915260098152683737ba1037bbb732b960b91b6020820152906001600160a01b031633146114365760405162461bcd60e51b81526004016105d99190613e9b565b506001600160a01b038116600090815260046020908152604091829020548251808401909352600b83526a185b1c9958591e481cd95d60aa1b9183019190915260ff16156114975760405162461bcd60e51b81526004016105d99190613e9b565b506001600160a01b038116600081815260046020526040808220805460ff19166001179055517f590e04cdebeccba40f566186b9746ad295a4cd358ea4fefaaea6ce79630d96c09190a250565b60008060006114f48860a0902090565b6000818152600360209081526040918290206002015482518084019093526012835260008051602061414b83398151915291830191909152919250906001600160801b03166115565760405162461bcd60e51b81526004016105d99190613e9b565b506040805180820190915260128152711a5b98dbdb9cda5cdd195b9d081a5b9c1d5d60721b602082015287158715186115a25760405162461bcd60e51b81526004016105d99190613e9b565b5060408051808201909152600c81526b7a65726f206164647265737360a01b60208201526001600160a01b0385166115ed5760405162461bcd60e51b81526004016105d99190613e9b565b506115f785613440565b6040518060400160405280600c81526020016b1d5b985d5d1a1bdc9a5e995960a21b8152509061163a5760405162461bcd60e51b81526004016105d99190613e9b565b506116458882612e82565b8615611680576000818152600360205260409020546116799088906001600160801b0380821691600160801b900416613482565b95506116b1565b6000818152600360205260409020546116ae9087906001600160801b0380821691600160801b90041661349f565b96505b60008181526002602090815260408083206001600160a01b0389168452909152812080548892906116e3908490613f82565b909155506116f290508661322d565b60008281526003602052604090208054601090611720908490600160801b90046001600160801b0316613ee4565b92506101000a8154816001600160801b0302191690836001600160801b0316021790555061174d8761322d565b600082815260036020526040812080549091906117749084906001600160801b0316613ee4565b82546101009290920a6001600160801b0381810219909316918316021790915560008381526003602090815260409182902080546001919091015483518085019094526016845275696e73756666696369656e74206c697175696469747960501b92840192909252919350908216911611156118035760405162461bcd60e51b81526004016105d99190613e9b565b50836001600160a01b0316856001600160a01b0316827fa56fc0ad5702ec05ce63666221f796fb62437c32db1aa1aa075fc6484cf58fbf338b8b6040516113be93929190613f61565b606081806001600160401b03811115611867576118676138ec565b604051908082528060200260200182016040528015611890578160200160208202803683370190505b50915060005b818110156118d55760008585836118ac81613f95565b94508181106118bd576118bd613fae565b90506020020135905080546020830285015250611896565b505092915050565b8160800151421115604051806040016040528060118152602001701cda59db985d1d5c9948195e1c1a5c9959607a1b8152509061192d5760405162461bcd60e51b81526004016105d99190613e9b565b5081516001600160a01b0316600090815260076020526040812080549161195383613f95565b919050558260600151146040518060400160405280600d81526020016c696e76616c6964206e6f6e636560981b815250906119a15760405162461bcd60e51b81526004016105d99190613e9b565b50604080517f81d0284fb0e2cde18d0553b06189d6f7613c96a01bb5b5e7828eade6a0dcac9160208083019190915284516001600160a01b039081168385015285820151166060808401919091528584015115156080808501919091529086015160a084015285015160c0808401919091528351808403909101815260e08301845280519082012061190160f01b6101008401527f000000000000000000000000000000000000000000000000000000000000000061010284015261012280840182905284518085039091018152610142909301909352815191810191909120906000906001908390611a9690870187613fc4565b604080516000815260208181018084529490945260ff9092168282015291870135606082015290860135608082015260a0016020604051602081039080840390855afa158015611aea573d6000803e3d6000fd5b5050604051601f1901519150506001600160a01b03811615801590611b245750806001600160a01b031685600001516001600160a01b0316145b60405180604001604052806011815260200170696e76616c6964207369676e617475726560781b81525090611b6c5760405162461bcd60e51b81526004016105d99190613e9b565b5084600001516001600160a01b0316336001600160a01b03167fa58af1a0c70dba0c7aa60d1a1a147ebd61000d1690a968828ac718bca927f2c78760600151604051611bba91815260200190565b60405180910390a36040858101805187516001600160a01b03908116600090815260066020908152858220818c0180518516845290825291869020805460ff19169415159490941790935551895193519451941515855281169392169133917fd5e969f01efe921d3f766bdebad25f0a05e3f237311f56482bf132d0326309c0910160405180910390a45050505050565b60a084206000818152600360209081526040918290206002015482518084019093526012835260008051602061414b833981519152918301919091526001600160801b0316611cad5760405162461bcd60e51b81526004016105d99190613e9b565b5060408051808201909152600b81526a7a65726f2061737365747360a81b602082015284611cee5760405162461bcd60e51b81526004016105d99190613e9b565b5060408051808201909152600c81526b7a65726f206164647265737360a01b60208201526001600160a01b038316611d395760405162461bcd60e51b81526004016105d99190613e9b565b50611d4383613440565b6040518060400160405280600c81526020016b1d5b985d5d1a1bdc9a5e995960a21b81525090611d865760405162461bcd60e51b81526004016105d99190613e9b565b50611d918582612e82565b611d9a8461322d565b60008281526002602090815260408083206001600160a01b038816845290915290206001018054601090611ddf908490600160801b90046001600160801b0316613ee4565b92506101000a8154816001600160801b0302191690836001600160801b03160217905550611e0e8582856134bc565b604051806040016040528060178152602001761a5b9cdd59999a58da595b9d0818dbdb1b185d195c985b604a1b81525090611e5c5760405162461bcd60e51b81526004016105d99190613e9b565b50816001600160a01b0316836001600160a01b0316827fe80ebd7cc9223d7382aab2e0d1d6155c65651f83d53c8b9b06901d167e3211423388604051611ea3929190613fe7565b60405180910390a46020850151611ec4906001600160a01b03168386613578565b5050505050565b60a0812060608201516001600160a01b0316600090815260046020908152604091829020548251808401909352600f83526e125493481b9bdd08195b98589b1959608a1b9183019190915260ff16611f365760405162461bcd60e51b81526004016105d99190613e9b565b506080820151600090815260056020908152604091829020548251808401909352601083526f13131515881b9bdd08195b98589b195960821b9183019190915260ff16611f965760405162461bcd60e51b81526004016105d99190613e9b565b5060008181526003602090815260409182902060020154825180840190935260168352751b585c9ad95d08185b1c9958591e4818dc99585d195960521b918301919091526001600160801b0316156120015760405162461bcd60e51b81526004016105d99190613e9b565b506000818152600360208181526040808420600290810180546001600160801b031916426001600160801b03161790556008835293819020865181546001600160a01b03199081166001600160a01b03928316178355938801516001830180548616918316919091179055878301519582018054851696821696909617909555606087015193810180549093169390941692909217905560808401516004909201919091555181907fac4b2400f169220b0c0afdde7a0b32e775ba727ea1cb30b35f935cdaab8683ac906120d690859061403f565b60405180910390a260608201516001600160a01b0316156106ea5760608201516000828152600360205260409081902090516325147fb560e21b81526001600160a01b0390921691639451fed4916121339186919060040161404d565b6020604051808303816000875af1158015612152573d6000803e3d6000fd5b505050506040513d601f19601f8201168201806040525081019061217691906140ac565b505050565b600080600061218b8960a0902090565b6000818152600360209081526040918290206002015482518084019093526012835260008051602061414b83398151915291830191909152919250906001600160801b03166121ed5760405162461bcd60e51b81526004016105d99190613e9b565b506040805180820190915260128152711a5b98dbdb9cda5cdd195b9d081a5b9c1d5d60721b602082015288158815186122395760405162461bcd60e51b81526004016105d99190613e9b565b5060408051808201909152600c81526b7a65726f206164647265737360a01b60208201526001600160a01b0387166122845760405162461bcd60e51b81526004016105d99190613e9b565b5061228f8982612e82565b87156122ca576000818152600360205260409020546122c39089906001600160801b0380821691600160801b9004166131d9565b96506122fb565b6000818152600360205260409020546122f89088906001600160801b0380821691600160801b900416613208565b97505b60008181526002602090815260408083206001600160a01b038a1684529091528120805489929061232d9084906140c5565b9091555061233c90508761322d565b6000828152600360205260409020805460109061236a908490600160801b90046001600160801b0316613f41565b92506101000a8154816001600160801b0302191690836001600160801b031602179055506123978861322d565b600082815260036020526040812080549091906123be9084906001600160801b0316613f41565b92506101000a8154816001600160801b0302191690836001600160801b03160217905550856001600160a01b0316336001600160a01b0316827fedf8870433c83823eb071d3df1caa8d008f12f6440918c20d75a3602cda30fe08b8b604051612431929190918252602082015260400190565b60405180910390a48315610a3657604051632075be0360e01b81523390632075be0390610a03908b9089908990600401613f0b565b60008060006124768960a0902090565b6000818152600360209081526040918290206002015482518084019093526012835260008051602061414b83398151915291830191909152919250906001600160801b03166124d85760405162461bcd60e51b81526004016105d99190613e9b565b506040805180820190915260128152711a5b98dbdb9cda5cdd195b9d081a5b9c1d5d60721b602082015287158715186125245760405162461bcd60e51b81526004016105d99190613e9b565b5061252f8982612e82565b600089604001516001600160a01b031663a035b1fe6040518163ffffffff1660e01b8152600401602060405180830381865afa158015612573573d6000803e3d6000fd5b505050506040513d601f19601f8201168201806040525081019061259791906140ac565b90506125a58a838b84613710565b1560405180604001604052806013815260200172706f736974696f6e206973206865616c74687960681b815250906125f05760405162461bcd60e51b81526004016105d99190613e9b565b506000612658670ff59ee833b3000061264d61262c8e60800151670de0b6b3a764000061261d9190613f82565b670429d069189e0000906137d2565b61263e90670de0b6b3a7640000613f82565b670de0b6b3a7640000906137e7565b808218908211021890565b905088156126c157600061267b8a846a0c097ce7bc90715b34b9f160241b6137fc565b6000858152600360205260409020600101549091506126b9906001600160801b0380821691600160801b9004166126b28486613828565b9190613482565b98505061271e565b60008381526003602052604090206001015461271b906a0c097ce7bc90715b34b9f160241b90849061271490859061270e908e906001600160801b0380821691600160801b90041661349f565b906137d2565b919061383d565b98505b50506000818152600360205260408120600101546127519088906001600160801b0380821691600160801b900416613208565b905061275c8761322d565b60008381526002602090815260408083206001600160a01b038e1684529091528120600101805490919061279a9084906001600160801b0316613ee4565b92506101000a8154816001600160801b0302191690836001600160801b031602179055506127c78761322d565b600083815260036020526040902060010180546010906127f8908490600160801b90046001600160801b0316613ee4565b82546101009290920a6001600160801b0381810219909316918316021790915560008481526003602052604090206001015461283c9250168281039083100261322d565b600083815260036020526040902060010180546001600160801b0319166001600160801b03929092169190911790556128748861322d565b60008381526002602090815260408083206001600160a01b038e168452909152902060010180546010906128b9908490600160801b90046001600160801b0316613ee4565b82546101009290920a6001600160801b0381810219909316918316021790915560008481526002602090815260408083206001600160a01b038f1684529091528120600101549092508291600160801b909104168103612ab25760008481526002602090815260408083206001600160a01b038f168452825280832060019081015488855260039093529220909101546001600160801b039182169350612974918181169161264d9186918491600160801b90910416613208565b905061297f8161322d565b600085815260036020526040812060010180549091906129a99084906001600160801b0316613ee4565b92506101000a8154816001600160801b0302191690836001600160801b031602179055506129d68161322d565b600085815260036020526040812080549091906129fd9084906001600160801b0316613ee4565b92506101000a8154816001600160801b0302191690836001600160801b03160217905550612a2a8261322d565b60008581526003602052604090206001018054601090612a5b908490600160801b90046001600160801b0316613ee4565b82546001600160801b039182166101009390930a92830291909202199091161790555060008481526002602090815260408083206001600160a01b038f168452909152902060010180546001600160801b03191690555b60408051848152602081018b90529081018b905260608101829052608081018390526001600160a01b038c1690339086907fa4946ede45d0c6f06a0f5ce92c9ad3b4751452d2fe0e25010783bcab57a67e419060a00160405180910390a460208c0151612b29906001600160a01b0316338c613578565b8615612b89576040516367bf50cb60e11b8152339063cf7ea19690612b569086908c908c90600401613f0b565b600060405180830381600087803b158015612b7057600080fd5b505af1158015612b84573d6000803e3d6000fd5b505050505b8b51612ba0906001600160a01b031633308661328a565b50979a909950975050505050505050565b60408051808201909152600b81526a7a65726f2061737365747360a81b602082015283612bf15760405162461bcd60e51b81526004016105d99190613e9b565b506040518381526001600160a01b0385169033907fc76f1b4fe4396ac07a9fa55a415d4ca430e72651d37d3401f3bed7cb13fc4f129060200160405180910390a3612c466001600160a01b0385163385613578565b6040516318fab83960e11b815233906331f5707290612c6d90869086908690600401613f0b565b600060405180830381600087803b158015612c8757600080fd5b505af1158015612c9b573d6000803e3d6000fd5b50612cb5925050506001600160a01b03851633308661328a565b50505050565b6000546040805180820190915260098152683737ba1037bbb732b960b91b6020820152906001600160a01b03163314612d075760405162461bcd60e51b81526004016105d99190613e9b565b5060015460408051808201909152600b81526a185b1c9958591e481cd95d60aa1b6020820152906001600160a01b03838116911603612d595760405162461bcd60e51b81526004016105d99190613e9b565b50600180546001600160a01b0319166001600160a01b0383169081179091556040517f2e979f80fe4d43055c584cf4a8467c55875ea36728fc37176c05acd784eb7a7390600090a250565b3360009081526006602090815260408083206001600160a01b0386168452825291829020548251808401909352600b83526a185b1c9958591e481cd95d60aa1b9183019190915282151560ff909116151503612e135760405162461bcd60e51b81526004016105d99190613e9b565b503360008181526006602090815260408083206001600160a01b03871680855290835292819020805460ff1916861515908117909155905190815291929182917fd5e969f01efe921d3f766bdebad25f0a05e3f237311f56482bf132d0326309c0910160405180910390a45050565b600081815260036020526040812060020154612ea7906001600160801b031642613f82565b905080600003612eb657505050565b60608301516001600160a01b0316156131ab57606083015160008381526003602052604080822090516325147fb560e21b815291926001600160a01b031691639451fed491612f0a9188919060040161404d565b6020604051808303816000875af1158015612f29573d6000803e3d6000fd5b505050506040513d601f19601f82011682018060405250810190612f4d91906140ac565b90506000612f7f612f5e838561384a565b6000868152600360205260409020600101546001600160801b0316906137d2565b9050612f8a8161322d565b60008581526003602052604081206001018054909190612fb49084906001600160801b0316613f41565b92506101000a8154816001600160801b0302191690836001600160801b03160217905550612fe18161322d565b600085815260036020526040812080549091906130089084906001600160801b0316613f41565b82546101009290920a6001600160801b03818102199093169183160217909155600086815260036020526040812060020154909250600160801b9004161561316457600085815260036020526040812060020154613077908490600160801b90046001600160801b03166137d2565b6000878152600360205260409020549091506130c8906130a19083906001600160801b0316613f82565b600088815260036020526040902054839190600160801b90046001600160801b03166131d9565b60008781526002602090815260408083206001546001600160a01b031684529091528120805492945084929091906131019084906140c5565b9091555061311090508261322d565b6000878152600360205260409020805460109061313e908490600160801b90046001600160801b0316613f41565b92506101000a8154816001600160801b0302191690836001600160801b03160217905550505b604080518481526020810184905290810182905285907f9d9bd501d0657d7dfe415f779a620a62b78bc508ddc0891fbbd8b7ac0f8fce879060600160405180910390a25050505b50600090815260036020526040902060020180546001600160801b031916426001600160801b031617905550565b60006131fe6131eb620f4240846140c5565b6131f66001866140c5565b86919061383d565b90505b9392505050565b60006131fe6132186001856140c5565b613225620f4240856140c5565b8691906137fc565b6040805180820190915260148152731b585e081d5a5b9d0c4c8e08195e18d95959195960621b60208201526000906001600160801b038311156132835760405162461bcd60e51b81526004016105d99190613e9b565b5090919050565b6040805180820190915260078152666e6f20636f646560c81b60208201526001600160a01b0385163b6132d05760405162461bcd60e51b81526004016105d99190613e9b565b506040516001600160a01b038481166024830152838116604483015260648201839052600091829187169060840160408051601f198184030181529181526020820180516001600160e01b03166323b872dd60e01b1790525161333391906140d8565b6000604051808303816000865af19150503d8060008114613370576040519150601f19603f3d011682016040523d82523d6000602084013e613375565b606091505b509150915081604051806040016040528060158152602001741d1c985b9cd9995c919c9bdb481c995d995c9d1959605a1b815250906133c75760405162461bcd60e51b81526004016105d99190613e9b565b50805115806133e55750808060200190518101906133e591906140f4565b6040518060400160405280601b81526020017a7472616e7366657246726f6d2072657475726e65642066616c736560281b815250906134375760405162461bcd60e51b81526004016105d99190613e9b565b50505050505050565b6000336001600160a01b038316148061347c57506001600160a01b038216600090815260066020908152604080832033845290915290205460ff165b92915050565b60006131fe613494620f4240846140c5565b6132256001866140c5565b60006131fe6134af6001856140c5565b6131f6620f4240856140c5565b60008281526002602090815260408083206001600160a01b03851684529091528120600101546001600160801b031681036134f957506001613201565b600084604001516001600160a01b031663a035b1fe6040518163ffffffff1660e01b8152600401602060405180830381865afa15801561353d573d6000803e3d6000fd5b505050506040513d601f19601f8201168201806040525081019061356191906140ac565b905061356f85858584613710565b95945050505050565b6040805180820190915260078152666e6f20636f646560c81b60208201526001600160a01b0384163b6135be5760405162461bcd60e51b81526004016105d99190613e9b565b50600080846001600160a01b031684846040516024016135df929190613fe7565b60408051601f198184030181529181526020820180516001600160e01b031663a9059cbb60e01b1790525161361491906140d8565b6000604051808303816000865af19150503d8060008114613651576040519150601f19603f3d011682016040523d82523d6000602084013e613656565b606091505b509150915081604051806040016040528060118152602001701d1c985b9cd9995c881c995d995c9d1959607a1b815250906136a45760405162461bcd60e51b81526004016105d99190613e9b565b50805115806136c25750808060200190518101906136c291906140f4565b604051806040016040528060178152602001767472616e736665722072657475726e65642066616c736560481b81525090610c855760405162461bcd60e51b81526004016105d99190613e9b565b6000838152600360209081526040808320600190810154600284528285206001600160a01b038816865290935290832001548291613766916001600160801b039081169181811691600160801b90910416613208565b608087015160008781526002602090815260408083206001600160a01b038a168452909152812060010154929350916137c3919061270e90600160801b90046001600160801b0316876a0c097ce7bc90715b34b9f160241b61383d565b91909110159695505050505050565b60006132018383670de0b6b3a764000061383d565b600061320183670de0b6b3a76400008461383d565b60008161380a600182613f82565b6138148587614111565b61381e91906140c5565b6131fe9190614128565b600061320183670de0b6b3a7640000846137fc565b60008161381e8486614111565b6000806138578385614111565b905060006138788280613873670de0b6b3a76400006002614111565b61383d565b905060006138948284613873670de0b6b3a76400006003614111565b9050806138a183856140c5565b6138ab91906140c5565b9695505050505050565b80356001600160a01b03811681146138cc57600080fd5b919050565b6000602082840312156138e357600080fd5b613201826138b5565b634e487b7160e01b600052604160045260246000fd5b60405160a081016001600160401b038111828210171561393257634e487b7160e01b600052604160045260246000fd5b60405290565b600060a0828403121561394a57600080fd5b613952613902565b905061395d826138b5565b815261396b602083016138b5565b602082015261397c604083016138b5565b604082015261398d606083016138b5565b60608201526080820135608082015292915050565b600060a082840312156139b457600080fd5b6132018383613938565b60008083601f8401126139d057600080fd5b5081356001600160401b038111156139e757600080fd5b6020830191508360208285010111156139ff57600080fd5b9250929050565b6000806000806000806101208789031215613a2057600080fd5b613a2a8888613938565b955060a0870135945060c08701359350613a4660e088016138b5565b92506101008701356001600160401b03811115613a6257600080fd5b613a6e89828a016139be565b979a9699509497509295939492505050565b60008060008060006101008688031215613a9957600080fd5b613aa38787613938565b945060a08601359350613ab860c087016138b5565b925060e08601356001600160401b03811115613ad357600080fd5b613adf888289016139be565b969995985093965092949392505050565b60008060c08385031215613b0357600080fd5b613b0d8484613938565b9460a0939093013593505050565b600060208284031215613b2d57600080fd5b5035919050565b60008060008060006101208688031215613b4d57600080fd5b613b578787613938565b945060a0860135935060c08601359250613b7360e087016138b5565b9150613b8261010087016138b5565b90509295509295909350565b60008060408385031215613ba157600080fd5b613baa836138b5565b9150613bb8602084016138b5565b90509250929050565b60008060208385031215613bd457600080fd5b82356001600160401b0380821115613beb57600080fd5b818501915085601f830112613bff57600080fd5b813581811115613c0e57600080fd5b8660208260051b8501011115613c2357600080fd5b60209290920196919550909350505050565b6020808252825182820181905260009190848201906040850190845b81811015613c6d57835183529284019291840191600101613c51565b50909695505050505050565b8015158114613c8757600080fd5b50565b600080828403610100811215613c9f57600080fd5b60a0811215613cad57600080fd5b613cb5613902565b613cbe856138b5565b8152613ccc602086016138b5565b60208201526040850135613cdf81613c79565b60408201526060858101358183015260808087013590830152909350609f1982011215613d0b57600080fd5b5060a0830190509250929050565b6000806000806101008587031215613d3057600080fd5b613d3a8686613938565b935060a08501359250613d4f60c086016138b5565b9150613d5d60e086016138b5565b905092959194509250565b60008060408385031215613d7b57600080fd5b82359150613bb8602084016138b5565b6000806000806000806101208789031215613da557600080fd5b613daf8888613938565b9550613dbd60a088016138b5565b945060c0870135935060e087013592506101008701356001600160401b03811115613a6257600080fd5b60008060008060608587031215613dfd57600080fd5b613e06856138b5565b93506020850135925060408501356001600160401b03811115613e2857600080fd5b613e34878288016139be565b95989497509550505050565b60008060408385031215613e5357600080fd5b613e5c836138b5565b91506020830135613e6c81613c79565b809150509250929050565b60005b83811015613e92578181015183820152602001613e7a565b50506000910152565b6020815260008251806020840152613eba816040850160208701613e77565b601f01601f19169190910160400192915050565b634e487b7160e01b600052601160045260246000fd5b6001600160801b03828116828216039080821115613f0457613f04613ece565b5092915050565b83815260406020820152816040820152818360608301376000818301606090810191909152601f909201601f1916010192915050565b6001600160801b03818116838216019080821115613f0457613f04613ece565b6001600160a01b039390931683526020830191909152604082015260600190565b8181038181111561347c5761347c613ece565b600060018201613fa757613fa7613ece565b5060010190565b634e487b7160e01b600052603260045260246000fd5b600060208284031215613fd657600080fd5b813560ff8116811461320157600080fd5b6001600160a01b03929092168252602082015260400190565b80516001600160a01b03908116835260208083015182169084015260408083015182169084015260608083015190911690830152608090810151910152565b60a0810161347c8284614000565b610160810161405c8285614000565b82546001600160801b0380821660a0850152608091821c60c0850152600185015480821660e0860152821c6101008501526002909401549384166101208401529290921c61014090910152919050565b6000602082840312156140be57600080fd5b5051919050565b8082018082111561347c5761347c613ece565b600082516140ea818460208701613e77565b9190910192915050565b60006020828403121561410657600080fd5b815161320181613c79565b808202811582820484141761347c5761347c613ece565b60008261414557634e487b7160e01b600052601260045260246000fd5b50049056fe6d61726b6574206e6f7420637265617465640000000000000000000000000000a164736f6c6343000813000a","linkReferences":{}},"methodIdentifiers":{"DOMAIN_SEPARATOR()":"3644e515","accrueInterest((address,address,address,address,uint256))":"151c1ade","borrow((address,address,address,address,uint256),uint256,uint256,address,address)":"50d8cd4b","createMarket((address,address,address,address,uint256))":"8c1358a2","enableIrm(address)":"5a64f51e","enableLltv(uint256)":"4d98a93b","extSloads(bytes32[])":"7784c685","feeRecipient()":"46904840","flashLoan(address,uint256,bytes)":"e0232b42","idToMarketParams(bytes32)":"2c3c9157","isAuthorized(address,address)":"65e4ad9e","isIrmEnabled(address)":"f2b863ce","isLltvEnabled(uint256)":"b485f3b8","liquidate((address,address,address,address,uint256),address,uint256,uint256,bytes)":"d8eabcb8","market(bytes32)":"5c60e39a","nonce(address)":"70ae92d2","owner()":"8da5cb5b","position(bytes32,address)":"93c52062","repay((address,address,address,address,uint256),uint256,uint256,address,bytes)":"20b76e81","setAuthorization(address,bool)":"eecea000","setAuthorizationWithSig((address,address,bool,uint256,uint256),(uint8,bytes32,bytes32))":"8069218f","setFee((address,address,address,address,uint256),uint256)":"2b4f013c","setFeeRecipient(address)":"e74b981b","setOwner(address)":"13af4035","supply((address,address,address,address,uint256),uint256,uint256,address,bytes)":"a99aad89","supplyCollateral((address,address,address,address,uint256),uint256,address,bytes)":"238d6579","withdraw((address,address,address,address,uint256),uint256,uint256,address,address)":"5c2bea49","withdrawCollateral((address,address,address,address,uint256),uint256,address,address)":"8720316d"},"id":0}